S00C000043414C432E7372656305
S11300000C9433000C9450000C9450000C94500049
S11300100C9450000C9450000C9450000C949A02D0
S11300200C9450000C9450000C9450000C9450000C
S11300300C9450000C9450000C9450000C945000FC
S11300400C9450000C9450000C9450000C945000EC
S11300500C945000670E670E960E9B0EB10E670E41
S1130060670E960E9B0E11241FBECFE5D8E0DEBFAF
S1130070CDBF10E0A0E6B0E0EAE9F0E202C00590EE
S11300800D92AE36B107D9F724E0AEE6B0E001C078
S11300901D92AF31B207E1F70E9408100C944B1087
S11300A00C940000982F96959695969587706130DC
S11300B0E1F5913099F028F09230E9F0933041F174
S11300C008954BB321E030E0B90102C0660F771FF9
S11300D08A95E2F7CB01842B8BBB089548B321E0CA
S11300E030E0B90102C0660F771F8A95E2F7CB01B1
S11300F0842B88BB089545B321E030E0B90102C0E8
S1130100660F771F8A95E2F7CB01842B85BB089590
S113011042B321E030E0B90102C0660F771F8A952F
S1130120E2F7CB01842B82BB089561113FC091306B
S1130130A1F028F09230F9F0933059F108954BB3BF
S113014021E030E0B90102C0660F771F8A95E2F71B
S1130150CB01809584238BBB089548B321E030E024
S1130160B90102C0660F771F8A95E2F7CB0180952B
S1130170842388BB089545B321E030E0B90102C06F
S1130180660F771F8A95E2F7CB018095842385BBA0
S1130190089542B321E030E0B90102C0660F771F31
S11301A08A95E2F7CB018095842382BB0895FC01F4
S11301B00396928381832FEF3FEF348323839683C7
S11301C085839087878310820895FC0111861086A9
S11301D00895CF93DF93EB01488159814F3F2FEF6F
S11301E0520721F4FC01A781B0850DC0DC011396F0
S11301F001C0DF011296ED91FC91139720813181AA
S113020042175307B0F71296ED91FC911397FB83B5
S1130210EA83D583C483BD83AC831396DC93CE93E6
S1130220129799878887FC0120812F5F2083DF91B3
S1130230CF910895CF93DF93FC01A085B185C2814E
S1130240D381848195819D838C83C481D58182816E
S113025093819B838A8311968D919C911297E817C1
S1130260F90731F48481958112969C938E931197AA
S1130270118610868C9181508C938C91DF91CF9153
S113028008951BBC89EF8ABD8BE08EBD89B7806160
S113029089BF089531E1FC013083319722E2208344
S11302A03197A3E3A08331976083319770833197AB
S11302B01082319760E8608331971082319762E051
S11302C06083319763E06083319764E060833197A2
S11302D065E06083319766E06083319767E060830F
S11302E0319768E06083319769E06083319760E11A
S11302F0608331973083319732E13083319733E132
S11303003083319734E13083319735E1308331974D
S113031036E13083319737E13083319738E13083E8
S1130320319739E13083319730E23083319731E2CC
S1130330308331972083319723E2208331974083A0
S113034031975083319726E22083319727E2208327
S1130350319728E22083319729E22083319720E3E3
S11303602083319721E32083869708950E944101D9
S1130370A0910104B0910204CD91CDBFDD91DEBF07
S1130380FF91EF91DF91CF91BF91AF919F918F91A9
S11303907F916F915F914F913F912F911F910F9199
S11303A0FF90EF90DF90CF90BF90AF909F908F9091
S11303B07F906F905F904F903F902F901F900F9081
S11303C00FBE0F90089581E008950F920FB6F89430
S11303D00F921F9211242F923F924F925F926F922D
S11303E07F928F929F92AF92BF92CF92DF92EF92C1
S11303F0FF920F931F932F933F934F935F936F93AA
S11304007F938F939F93AF93BF93CF93DF93EF9398
S1130410FF93A0910104B09102040DB60D920EB6A3
S11304200D920E94530BA0910104B0910204CD914E
S1130430CDBFDD91DEBFFF91EF91DF91CF91BF91F1
S1130440AF919F918F917F916F915F914F913F9168
S11304502F911F910F91FF90EF90DF90CF90BF905D
S1130460AF909F908F907F906F905F904F903F9050
S11304702F901F900F900FBE0F9008950F920FB6FC
S1130480F8940F921F9211242F923F924F925F92F1
S11304906F927F928F929F92AF92BF92CF92DF9290
S11304A0EF92FF920F931F932F933F934F935F937A
S11304B06F937F938F939F93AF93BF93CF93DF9368
S11304C0EF93FF93A0910104B09102040DB60D9235
S11304D00EB60D920E94640981110E94530BA091E3
S11304E00104B0910204CD91CDBFDD91DEBFFF9137
S11304F0EF91DF91CF91BF91AF919F918F917F91B8
S11305006F915F914F913F912F911F910F91FF90A8
S1130510EF90DF90CF90BF90AF909F908F907F909F
S11305206F905F904F903F902F901F900F900FBE51
S11305300F9008950E943E021895E8E7F0E0ACE7BA
S1130540B0E0B183A08313821282E8E9F3E0F09370
S11305507700E093760013821282118210828CE17C
S113056093E013969C938E931297ED93FC93909340
S113057073008093720090937500809374000895C3
S1130580CF93DF93EC01A8E7B0E001C0DF01ED9168
S1130590FC911197EC17FD07C8F312968D919C916D
S11305A013979D01280F391FC217D30749F42A81D5
S11305B03B81820F931F13969C938E931297ED01A8
S11305C08A819B819E01280F391FE217F307C1F42A
S11305D02091760030917700E217F30771F02281C1
S11305E03381820F931F9B838A83ED91FC91119732
S11305F0808191819983888305C03983288302C0CF
S1130600F983E883CA17DB0711F0CD93DC93DF91FC
S1130610CF910895EF92FF920F931F93CF93DF939F
S11306208C010E9451098091760090917700892B6A
S113063011F40E949D020115110549F00B3F8FEF43
S1130640180718F40B5F1F4F02C000E010E01123DD
S11306500CF466C00115110509F465C0809174009D
S1130660909175008017910708F460C0C0917800DC
S1130670D0917900E8E7F0E002C0FE01EC018A8144
S11306809B818017910720F4888199810097A9F7AD
S11306908091760090917700C817D90709F449C072
S11306A0E080F18084E0E80EF11C888199819183D7
S11306B080832A813B81201B310B2930310550F086
S11306C0CE01800F911FFC01338322831B830A8395
S11306D00E94C0022A813B81809174009091750030
S11306E0821B930B90937500809374004091720069
S11306F0509173008417950720F4909373008093AE
S1130700720030683B832A831982188280917000BA
S113071090917100019690937100809370000BC0CA
S1130720E12CF12C08C0E12CF12C05C0E12CF12CBA
S113073002C0E12CF12C0E947E0AC701DF91CF9107
S11307401F910F91FF90EF9008950F931F93CF93F4
S1130750DF93009749F1EC0124972A813B813323ED
S11307601CF548815981452BF9F43F773B832A8353
S11307700E9451098A819B812091740030917500F7
S1130780820F931F9093750080937400CE010E9492
S1130790C00280916E0090916F00019690936F005B
S11307A080936E000E947E0ADF91CF911F910F917A
S11307B008950FB6F8940F92FC01828D811102C046
S11307C081E001C080E00F900FBE08950FB6F89449
S11307D00F92FC01228D838D281302C081E001C099
S11307E080E00F900FBE08950F931F93CF93DF9374
S11307F0EC01042F1A8D4C8D4423B9F1011116C05C
S113080050E08A819B810E943B102C8D8A819B81C0
S1130810820F911D9B838A832C813D8182179307CC
S113082020F1888199819B838A831FC050E08E8147
S11308309F810E943B108C8D90E091958195910948
S11308402E813F81280F391F3F832E834881598190
S11308502417350730F42C813D81820F931F9F8329
S11308608E83023011F4111111501F5F1A8F80E032
S1130870DF91CF911F910F910895FC01448D442382
S1130880A9F050E026813781240F351F3783268352
S1130890848195812817390720F08081918197837D
S11308A08683CB01668177810E943B1008951F9354
S11308B0CF93DF93EC010FB6F8940F921E8D0BC00B
S11308C08989882351F0CE0141960E94020C81113E
S11308D00E94090D115011169CF38FEF8E8F0F900B
S11308E00FBE0FB6F8940F921D8D0BC08885882318
S11308F051F0CE0108960E94020C81110E94090D4C
S1130900115011169CF38FEF8D8F0F900FBEDF9156
S1130910CF911F9108950F931F93CF93DF93FC0101
S1130920362F892B09F44DC0238D222309F44BC0A3
S1130930022F10E08FEF9FEFB8010E942110448D29
S1130940842F90E06817790708F43FC0EF010FB6D1
S1130950F8940F9260817181FB01249FE00DF11DD9
S11309601124FD83EC831A8E7B836A830150110961
S1130970809FA001819F500D909F500D1124CB01A9
S1130980840F951F9F838E838FEF8D8F8E8F3111F0
S11309900CC08885882389F0CE0108960E94020C39
S11309A0882359F00E94E50108C0CE0108960E94F0
S11309B0D700CE0141960E94D7000F900FBE81E070
S11309C005C080E003C080E001C080E0DF91CF91EA
S11309D01F910F9108950F931F93F801611103C0A4
S11309E01183008302C051834083838F648F61E04D
S11309F0CF010E948B041F910F910895DF92EF9213
S1130A00FF920F931F93CF93DF93382FE62F882302
S1130A1029F1682F70E08FEF9FEF0E9421108E2F35
S1130A2090E068177907E8F03E9FC0011124813EE9
S1130A302FEF9207C8F4D42EDE2FC32F4F960E94B7
S1130A400A037C01009791F08C012D2DAC01415ECD
S1130A505F4F6D2F8C2F0E94EB0408C0E12CF12C0A
S1130A6005C0E12CF12C02C0E12CF12CC701DF916F
S1130A70CF911F910F91FF90EF90DF900895CF9247
S1130A80DF92EF92FF920F931F93CF93DF9300D0E7
S1130A9000D01F92CDB7DEB78C017B015D834C8300
S1130AA0C22ED12C0FB6F8940F92F801928D838D3B
S1130AB0981718F0F2E0CF1219C04C2DB701C801F5
S1130AC00E94F403F8019189992349F0C8014196E1
S1130AD00E94020C882331F00E94E50103C08111B9
S1130AE00E94E5010F900FBE81E04DC08C819D8175
S1130AF0892B21F40F900FBE80E045C0D11006C0B1
S1130B00CE0101960E94BF0CDD24D3940F900FBE3A
S1130B100E9451090FB6F8940F92F801858D8F3F0A
S1130B2009F4158EF801868D8F3F09F4168E0F9007
S1130B300FBEBE016C5F7F4FCE0101960E94CA0CAE
S1130B4081111BC0C8010E94E603882381F06C81D7
S1130B507D81C80108960E94A70BC8010E94570412
S1130B600E947E0A81119ECF0E94E5019BCFC8019D
S1130B700E9457040E947E0A95CFC8010E94570420
S1130B800E947E0A80E00F900F900F900F900F90BC
S1130B90DF91CF911F910F91FF90EF90DF90CF9055
S1130BA00895EF92FF920F931F93CF93DF938A01DF
S1130BB0FC01528D338D531710F0223021F5422F52
S1130BC07801EC011E8D8A8DCE010E94F4031F3F33
S1130BD081F489898823C9F0CE0141960E94020CD0
S1130BE08823A9F0E114F104A1F081E0F7018083E6
S1130BF013C00E946109181770F4FF24F394F10ED6
S1130C00FE8E81E009C080E007C081E005C081E07C
S1130C1003C081E001C081E0DF91CF911F910F916A
S1130C20FF90EF900895CF92DF92EF92FF920F938F
S1130C301F93CF93DF9300D000D01F92CDB7DEB7C0
S1130C408C016B015D834C83E12C0FB6F8940F92F9
S1130C50F801F28CFF20A9F0B601C8010E943D04FE
S1130C60FA94F801F28E8085882339F0C801089639
S1130C700E94020C81110E94E5010F900FBE81E0D9
S1130C8053C08C819D81892B21F40F900FBE80E08D
S1130C904BC0E11006C0CE0101960E94BF0CEE24A9
S1130CA0E3940F900FBE0E9451090FB6F8940F926F
S1130CB0F801858D8F3F09F4158EF801868D8F3FDD
S1130CC009F4168E0F900FBEBE016C5F7F4FCE01EC
S1130CD001960E94CA0C81111BC0C8010E94D9034D
S1130CE0882381F06C817D81C80141960E94A70B05
S1130CF0C8010E9457040E947E0A8111A6CF0E9457
S1130D00E501A3CFC8010E9457040E947E0A9DCF2B
S1130D10C8010E9457040E947E0AC8010E94D90398
S1130D20882309F492CF80E00F900F900F900F90DA
S1130D300F90DF91CF911F910F91FF90EF90DF9073
S1130D40CF900895CF93DF93EC010FB6F8940F92F0
S1130D508D8D8F3F09F41D8E8E8D8F3F09F41E8E6D
S1130D600F900FBE8A8D811104C0CE0141960E945E
S1130D70B90BCE010E945704DF91CF910895E09101
S1130D80C903F091CA038081811107C08FEF9FEFDF
S1130D909093A00380939F030895E091C903F09179
S1130DA0CA030580F681E02D808191819093A00390
S1130DB080939F030895CF93DF93EC018F89988DDF
S1130DC00E94A503CE010E94A503DF91CF9108954F
S1130DD02F923F924F925F926F927F928F929F9247
S1130DE0AF92BF92CF92DF92EF920F931F93CF9364
S1130DF0DF93CDB7DEB71C014B0129013A01A901EC
S1130E0065EA70E0F5018789908D0E944410F50130
S1130E108789908DF1E04F1A5108480E591E8114AC
S1130E20910489F415C0822F90E0F401E80FF91FB2
S1130E303081D501A80FB91F59963C93808188232E
S1130E4029F02F5F01C020E02A3068F3F50112A2D7
S1130E50F3E0FE1520F40F2EF3E0EF2EF02DF50154
S1130E60E68AC50102960E94E500C5010C960E941F
S1130E70E500F501B186A08684E090E08E19910921
S1130E8095878487B38AA28AA801B101C2010E940E
S1130E904A01F50191838083C114D10419F0F6014C
S1130EA0B182A082DF91CF911F910F91EF90DF90DB
S1130EB0CF90BF90AF909F908F907F906F905F90F6
S1130EC04F903F902F900895CF93C0E010C08C2F87
S1130ED090E09C01220F331F220F331F220F331F78
S1130EE0820F931F83529C4F0E94D700CF5FC43060
S1130EF070F384ED93E00E94D7008BEC93E00E94A2
S1130F00D7008EEB93E00E94D70085EB93E00E941C
S1130F10D7008BEA93E00E94D70084ED93E090938E
S1130F20CA038093C9038BEC93E09093C803809326
S1130F30C703CF910895CF93DF93EC010FB6F894D4
S1130F400F928091AA038F5F8093AA03809101047A
S1130F5090910204892B59F4D0930204C0930104A4
S1130F608091AA03813099F40E94640710C0809193
S1130F70A60381110CC0E0910104F091020496894A
S1130F808E89891720F0D0930204C09301048091C4
S1130F90A1038F5F8093A1038E899091A703981773
S1130FA010F48093A70390E0FC01EE0FFF1FEE0FF7
S1130FB0FF1FEE0FFF1F8E0F9F1FFC01E352FC4F1C
S1130FC00180F281E02DFD83EC83848195819F83F0
S1130FD08E83A481B581CE01029613969C938E9341
S1130FE0129795838483EE89F0E0CF01880F991FCF
S1130FF0880F991F880F991FE80FF91FE352FC4FC0
S1131000FB87EA8780818F5F80830F900FBE80917A
S1131010A603882351F0E0910104F091020496891B
S11310208E89981710F40E94E501DF91CF910895FD
S1131030CF93DF931CC00FB6F8940F92E091BA03DC
S1131040F091BB03C681D781CE0102960E941A019A
S11310508091AA0381508093AA038091B4038150A4
S11310608093B4030F900FBECE010E94DB068091E3
S1131070B4038111E0CFDF91CF9108950E94180845
S11310808091DD038230D0F30E94E501F7CFFF9217
S11310900F931F93CF93DF93EC01F62E0091A803D7
S11310A01091A903809101049091020402960E9478
S11310B01A01CF3F8FEFD807B1F5FF20A1F1EBEA7A
S11310C0F3E0A181B281C0910104D0910204BD83F7
S11310D0AC83C0910104D091020414968D919C912B
S11310E015979F838E831496CD91DC9115978091EB
S11310F001049091020402969B838A8380910104E7
S113110090910204029615969C938E931497A09145
S11311100104B09102041B96FC93EE931A9780810C
S11311208F5F80832FC0C00FD11FE0910104F09125
S11311300204D383C283C017D10768F46091010409
S1131140709102048091C7039091C8036E5F7F4F32
S11311500E94E90017C0609101047091020480911B
S1131160C9039091CA036E5F7F4F0E94E90080918A
S11311709F039091A003C817D90720F4D093A0032C
S1131180C0939F03DF91CF911F910F91FF9008951A
S11311902F923F924F925F926F927F928F929F9283
S11311A0AF92BF92CF92DF92EF92FF920F931F9371
S11311B0CF93DF933C011B015A012901CA010E940C
S11311C00A036C01892B99F088E290E00E940A03DB
S11311D0EC01892B41F088E2FE0111928A95E9F72E
S11311E0D88ECF8A06C0C6010E94A50302C0C0E003
S11311F0D0E0209791F0950140E050E0812C912CB3
S11312005E016701E02E8201B101C3010E94E8067C
S1131210CE010E949B0781E001C08FEFDF91CF9147
S11312201F910F91FF90EF90DF90CF90BF90AF9000
S11312309F908F907F906F905F904F903F902F90F2
S11312400895EF92FF920F930F2EFDE9EF2EF3E036
S1131250FF2EF02D00E020E030E045E550E061E6AF
S113126070E08EE398E00E94C808813011F40E9477
S11312700D0F813081F4F8948FEF9FEF9093A003CA
S113128080939F0381E08093A6031092A903109298
S1131290A8030E94B601809160000F91FF90EF9027
S11312A0089580919C038F5F80939C0308950FB6EB
S11312B0F8940F928091A8039091A9030F900FBE08
S11312C008958091AA0308950F931F93CF93DF93FA
S11312D080919C03811101C1C091A803D091A903FD
S11312E08E010F5F1F4F1093A9030093A8030115EC
S11312F01105B9F48091C9039091CA032091C703E1
S11313003091C8033093CA032093C9039093C80350
S11313108093C7038091A2038F5F8093A2030E94EE
S1131320BF0680919F039091A0030817190720F42A
S113133080E0B8C081E001C080E0E091C903F09191
S1131340CA039081911107C02FEF3FEF3093A003A0
S113135020939F03A7C0E091C903F091CA030580BD
S1131360F681E02D0680F781E02D2281338102177A
S1131370130728F43093A00320939F0393C0A285FE
S1131380B3852481358146815781E9015D834C838E
S11313902681378144815581E9015B834A83119613
S11313A02D913C911297AF014E5F5F4F2417350783
S11313B031F42681378112963C932E93119713862C
S11313C012869C9191509C93A489B589109719F128
S11313D02685378560897189E9017D836C8320893D
S11313E0318966857785E9017B836A8311966D91DE
S11313F07C9112979F01245F3F4F6217730731F46A
S11314002089318912963C932E931197158A148A58
S11314109C9191509C9326899091A703921710F464
S11314202093A70330E0D901AA0FBB1FAA0FBB1F4B
S1131430AA0FBB1F2A0F3B1FD901A352BC4F119601
S11314400D90BC91A02DB583A48314962D913C914D
S113145015973783268314962D913C911597E901AE
S11314605B834A8315965C934E931497A689B0E0E8
S11314709D01220F331F220F331F220F331FA20F90
S1131480B31FA352BC4FB387A2879C919F5F9C93C9
S11314902689E0910104F09102049689921708F4D8
S11314A049CF4BCFE0910104F0910204268930E04A
S11314B0F901EE0FFF1FEE0FFF1FEE0FFF1F2E0FA0
S11314C03F1FF901E352FC4F9081923008F081E014
S11314D09091A30391110CC00CC08091A40390912E
S11314E0A50301969093A5038093A40380E001C013
S11314F081E0DF91CF911F910F910895CF93DF93F6
S11315000FB6F8940F9280919C03815080939C03B2
S113151080919C038111BFC08091AA03811196C060
S1131520BDC0E091C303F091C4030680F781E02DB0
S1131530A489B589C685D785808991899D838C8343
S1131540C089D189868597859B838A8311962D913D
S11315503C911297CF010C962817390731F48089F2
S1131560918912969C938E931197158A148A8C9163
S113157081508C93A285B385C481D581868197815E
S11315809D838C83C681D781848195819B838A8343
S113159011968D919C9112979F012E5F3F4F821758
S11315A0930731F48681978112969C938E931197B9
S11315B0138612868C9181508C9386899091A7030F
S11315C0981710F48093A70390E0DC01AA0FBB1FC7
S11315D0AA0FBB1FAA0FBB1F8A0F9B1FDC01A352BC
S11315E0BC4F11960D90BC91A02DB583A483149685
S11315F08D919C911597978386831496CD91DC9158
S113160015973B832A8315963C932E931497A689AA
S1131610B0E0CD01880F991F880F991F880F991F7B
S1131620A80FB91FA352BC4FB387A2878C918F5FB9
S11316308C939689A0910104B091020456968C91E2
S1131640981730F081E08093A30302C0E0E0F0E05B
S11316508091BE03811165CFEF2B11F00E94BF066C
S1131660C091A403D091A503209769F00E94640956
S1131670882319F081E08093A3032197B9F710928E
S1131680A5031092A4038091A303882331F00E9440
S1131690E50181E003C080E001C080E00F900FBE4F
S11316A0DF91CF91089580919C03882321F081E0FC
S11316B08093A30308951092A3032091A70301C06C
S11316C02150822F90E0FC01EE0FFF1FEE0FFF1F51
S11316D0EE0FFF1FE80FF91FE352FC4F3081332355
S11316E079F3AC01440F551F440F551F440F551F88
S11316F0480F591FDF010180F281E02D0280F38140
S1131700E02D1296FC93EE93119740525C4FE41730
S1131710F50729F442815381FD0152834183FC0181
S1131720EE0FFF1FEE0FFF1FEE0FFF1F8E0F9F1F09
S1131730FC01E352FC4F0180F281E02D8681978108
S113174090930204809301042093A7030895CF93F8
S1131750DF93EB016091010470910204645F7F4F99
S11317600E94E90061E0CE010E944708DF91CF9119
S113177008950F931F93CF93DF93FC018B01A181F5
S1131780B2818091010490910204EC01BF87AE877D
S1131790809101049091020414962D913C91159727
S11317A0EC01398B288B14968D919C91159720917F
S11317B0010430910204245F3F4FEC013B832A83F0
S11317C02091010430910204245F3F4F15963C930D
S11317D02E931497A0910104B09102045596FC93A2
S11317E0EE93549790819F5F9083442311F00FEF01
S11317F01FEF642FC8010E944708DF91CF911F910A
S11318000F910895CF93DF93DC011596ED91FC9130
S113181016970680F781E02DA489B589C685D785FA
S1131820808991899D838C83C089D1898685978598
S11318309B838A8311968D919C9112979F01245FBB
S11318403F4F8217930731F48089918912969C93B4
S11318508E931197158A148A8C9181508C93809160
S11318609C03811160C0A285B385C481D581868122
S113187097819D838C83C681D781848195819B8345
S11318808A8311968D919C9112979F012E5F3F4FF1
S11318908217930731F48681978112969C938E93D5
S11318A01197138612868C9181508C93868990911E
S11318B0A703981710F48093A70390E0DC01AA0F04
S11318C0BB1FAA0FBB1FAA0FBB1F8A0F9B1FDC01E4
S11318D0A352BC4F11960D90BC91A02DB583A48347
S11318E014968D919C911597978386831496CD9128
S11318F0DC9115973B832A8315963C932E9314977A
S1131900A689B0E0CD01880F991F880F991F880F11
S1131910991FA80FB91FA352BC4FB387A2878C91FC
S11319208F5F8C931CC04EEB53E0DA011196CD917E
S1131930DC911297D787C6878C819D81918B808B90
S11319408C819D81DC0113963C932E9312973D83E9
S11319502C83558B448BDA018C918F5F8C93968901
S1131960E0910104F09102048689891720F481E052
S11319708093A30301C080E0DF91CF91089520916B
S1131980A203FC0120832091A8033091A903328390
S1131990218308951F93CF93DF930FB6F8940F928A
S11319A0E091A803F091A903DC0111964D915C919B
S11319B01297DF01A41BB50BEB01288139812F3F5E
S11319C0DFEF3D07F9F0EC011881C091A2031C1769
S11319D041F0E417F50728F0FB011182108281E041
S11319E012C0A217B30748F4FB012A1B3B0B318337
S11319F020830E94BF0C80E006C0DB011D921C9274
S1131A0081E001C080E00F900FBEDF91CF911F9164
S1131A10089581E08093A30308958091A603882309
S1131A2031F080919C03811104C082E0089581E02B
S1131A30089580E00895DC01E0910B04F0910C041A
S1131A40808191E0811190E09C93911106C0058002
S1131A50F681E02D80819181089580E090E00895E1
S1131A60FC0173836283918780874617570790F040
S1131A70421B530B8485958548175907E0F4BF0131
S1131A806E5F7F4F8091090490910A040E94E900DF
S1131A9080E008954217530718F46217730768F437
S1131AA0BF016E5F7F4F80910B0490910C040E94E4
S1131AB0E90080E0089581E0089581E00895EF92BF
S1131AC0FF920F931F93CF93DF93EC018B017A0165
S1131AD008C08C859D85080F191FE889F989CE01F6
S1131AE009956C857D85600F711F9801A701CE0152
S1131AF00E94300D8111EDCFDF91CF911F910F9195
S1131B00FF90EF900895EF92FF920F931F93CF935E
S1131B10DF938C017B01E0910B04F0910C040580B0
S1131B20F681E02DC681D781CE0102960E941A016A
S1131B308A8982FF06C0A701B801CE010E945F0D09
S1131B4002C08E7F8A8BE889F989CE010995DF91DD
S1131B50CF911F910F91FF90EF90089509C00580D8
S1131B60F681E02D6FEF7FEF808191810E94830DDC
S1131B70E0910B04F0910C0480818111F0CF8091ED
S1131B80090490910A0490930C0480930B04F0933D
S1131B900A04E093090408950F931F93CF93DF93EE
S1131BA08C010E945709EC01809103049091040474
S1131BB0C817D90730F40E94AE0D81E0F801808384
S1131BC002C0F8011082D0930404C0930304CE0130
S1131BD0DF91CF911F910F910895CF92DF92EF92F1
S1131BE0FF921F93CF93DF931F92CDB7DEB77C0193
S1131BF0162F0E945109CE0101960E94CC0D6C0152
S1131C008981811127C011110AC0CE14DF0438F074
S1131C100E947E0AB601C7010E94830D1DC01123D4
S1131C2041F0E0910904F0910A04808111E08111EE
S1131C3010E0B7016C197D09412F80910704909140
S1131C4008040E94A2060E947E0A811105C00E9417
S1131C50E50102C00E947E0A0F90DF91CF911F918F
S1131C60FF90EF90DF90CF900895EF92FF920F9343
S1131C701F93CF93DF9300D000D000D0CDB7DEB751
S1131C807AC0898188230CF476C00C811D81D80127
S1131C901A968D919C911B97892B21F0C80102966D
S1131CA00E941A01CE0106960E94CC0D7C01E981A6
S1131CB08E2FEE0F990BAA0BBB0BFC013197E93069
S1131CC0F10508F058C0E65DFF4F0C943510F8019B
S1131CD082898160828B2A813B8164857585620F4C
S1131CE0731FA701C8010E94300D882309F443C063
S1131CF0D80152968C91529782FF0DC06A817B81E4
S1131D001C968D919C911D97680F791FA701C8019E
S1131D100E945F0D03C08E7FF801828BD80150961C
S1131D20ED91FC915197C801099525C0F80182896C
S1131D308E7F828B20C0D80152968C9152978160FD
S1131D4052968C9352976A817B811D967C936E93F5
S1131D501C976E0D7F1D9701A701C8010E94300DCD
S1131D600AC0F801828981FD04C0C8010E94A5034C
S1131D7002C08E7F828B40E050E0BE016F5F7F4FD8
S1131D8080910704909108040E941306811179CF71
S1131D9026960FB6F894DEBF0FBECDBFDF91CF916C
S1131DA01F910F91FF90EF900895CF93DF931F92AF
S1131DB0CDB7DEB7CE0101960E941B0D69810E944A
S1131DC0ED0D0E94350EF6CF0FB6F8940F92809168
S1131DD0070490910804892BE9F486E194E00E94B9
S1131DE0D7008DE094E00E94D70086E194E09093C0
S1131DF00C0480930B048DE094E090930A04809388
S1131E00090440E065E084E00E94FE049093080425
S1131E10809307040F900FBE0895EF92FF920F93E3
S1131E200E94E40E8091070490910804892B91F09C
S1131E300F2EF5E0EF2EF4E0FF2EF02D04E020E06D
S1131E4030E046E950E066E670E085ED9EE00E94F1
S1131E50C80801C080E00F91FF90EF9008950F93A0
S1131E601F93CF93DF9300D000D01F92CDB7DEB77E
S1131E70E0910704F0910804309771F1D901698366
S1131E805B834A839D838C836630ECF40E940D0D42
S1131E90823061F420E0A801BE016F5F7F4F809122
S1131EA00704909108040E943F0517C020E040E019
S1131EB050E0BE016F5F7F4F80910704909108044A
S1131EC00E943F050AC020E0AD01BE016F5F7F4F55
S1131ED0CF010E94D10501C080E00F900F900F90B8
S1131EE00F900F90DF91CF911F910F91089561E0B2
S1131EF08CE00E94520061E08DE00E94520061E09B
S1131F008EE00E94520061E08FE00E94520008952A
S1131F10CF93C82F60E083E10E9452006C2F661FAC
S1131F206627661F87E10E945200C6FB662760F998
S1131F3086E10E945200C5FB662760F985E10E9494
S1131F405200C4FB662760F984E10E94520061E0FC
S1131F5082E10E9452008FEC97E00197F1F700C0F4
S1131F60000060E082E10E9452008FEC97E001974C
S1131F70F1F700C00000C3FB662760F987E10E9407
S1131F805200C2FB662760F986E10E945200C1FB41
S1131F90662760F985E10E9452006C2F617084E12C
S1131FA00E94520061E082E10E9452008FEC97E0AF
S1131FB00197F1F700C0000060E082E10E94520046
S1131FC08FEC97E00197F1F700C00000CF910895DE
S1131FD02FE788E391E0215080409040E1F700C072
S1131FE0000082E00E94880F88E20E94880F8CE043
S1131FF00E94880F81E00E94880F8FEC97E0019780
S1132000F1F700C0000086E00E94880F089508954B
S11320100F931F930E94E80F0E94770F0E945709A5
S113202000E010E020E030E0AC0161E087E090E106
S11320300E942F0F0E94210980E090E01F910F91D0
S11320400895AA1BBB1B51E107C0AA1FBB1FA617FB
S1132050B70710F0A61BB70B881F991F5A95A9F74D
S113206080959095BC01CD010895EE0FFF1F05905A
S1132070F491E02D0994FB01DC0102C001900D9262
S113208041505040D8F70895DC0101C06D93415090
S10D20905040E0F70895F894FFCFE4
S111209A0349444C4500546D72205376630094
S9030000FC
