:100000000C9433000C9450000C9450000C9450004D
:100010000C9450000C9450000C9450000C94B302BB
:100020000C9450000C9450000C9450000C94500010
:100030000C9450000C9450000C9450000C94500000
:100040000C9450000C9450000C9450000C945000F0
:100050000C945000D70DD70D1E0E050E180ED70D9F
:10006000D70D1E0E050E11241FBECFE5D8E0DEBF52
:10007000CDBF10E0A0E6B0E0E8E4F8E202C00590F1
:100080000D92AE38B107D9F724E0AEE8B0E001C078
:100090001D92A835B207E1F70E94EC120C942214CD
:1000A0000C940000982F96959695969587706130E0
:1000B000C1F5913091F028F09230D9F0933029F1C8
:1000C00008954BB321E030E0B90102C0660F771FFD
:1000D0008A95E2F7CB01842B3AC048B321E030E0A7
:1000E000B90102C0660F771F8A95E2F7CB01842B16
:1000F0003CC045B321E030E0B90102C0660F771F74
:100100008A95E2F7CB01842B3EC042B321E030E078
:10011000B90102C0660F771F8A95E2F7CB01842BE5
:1001200040C061113FC09130A1F028F09230F9F049
:10013000933059F108954BB321E030E0B90102C08A
:10014000660F771F8A95E2F7CB01809584238BBBDE
:10015000089548B321E030E0B90102C0660F771F6F
:100160008A95E2F7CB018095842388BB089545B337
:1001700021E030E0B90102C0660F771F8A95E2F7EF
:10018000CB018095842385BB089542B321E030E004
:10019000B90102C0660F771F8A95E2F7CB018095FF
:1001A000842382BB0895982F969596959695282F2F
:1001B0002770911102C099B309C0913011F496B320
:1001C00005C0923011F493B301C090B3892F90E031
:1001D00002C0959587952A95E2F781700895FC01F4
:1001E0000396928381832FEF3FEF3483238396839B
:1001F00085839087878310820895FC01118610867D
:1002000008950F931F93CF93DF938C01FB0180819F
:1002100091818F3F2FEF920721F4E801AF81B885DC
:100220000EC0D801139612962D913C911397E901B7
:10023000488159818417950710F0D901F4CF12969F
:100240008D919C91139793838283EC01FD83EC83C2
:10025000B583A4831396FC93EE93129711870087BE
:10026000F80180818F5F8083DF91CF911F910F9183
:100270000895CF93DF93FC01A085B185828193819E
:1002800024813581EC013D832C83C481D5819B83FE
:100290008A8311968D919C911297E817F90721F4A2
:1002A0001296DC93CE931197118610868C91815013
:1002B0008C938C91DF91CF91089531E1FC013083D3
:1002C000319722E220833197A3E3A08331976083A3
:1002D0003197708331971082319760E8608331974E
:1002E0001082319762E06083319763E060833197D9
:1002F00064E06083319765E06083319766E06083F6
:10030000319767E06083319768E06083319769E0F7
:100310006083319760E1608331973083319732E1B8
:100320003083319733E13083319734E13083319733
:1003300035E13083319736E13083319737E13083CF
:10034000319738E13083319739E13083319730E2AA
:100350003083319731E2308331972083319723E224
:1003600020833197408331975083319726E2208351
:10037000319727E22083319728E22083319729E2C1
:100380002083319720E32083319721E320838697D0
:1003900008951BBC89EF8ABD8BE08EBD89B7806153
:1003A00089BFA0912104B0912204CD91CDBFDD91F0
:1003B000DEBFFF91EF91DF91CF91BF91AF919F9100
:1003C0008F917F916F915F914F913F912F911F91ED
:1003D0000F91FF90EF90DF90CF90BF90AF909F90E4
:1003E0008F907F906F905F904F903F902F901F90D5
:1003F0000F900FBE0F90089581E008950F920FB6F1
:10040000F8940F921F9211242F923F924F925F9275
:100410006F927F928F929F92AF92BF92CF92DF9214
:10042000EF92FF920F931F932F933F934F935F93FE
:100430006F937F938F939F93AF93BF93CF93DF93EC
:10044000EF93FF93A0912104B09122040DB60D9279
:100450000EB60D920E94ED0AA0912104B0912204E3
:10046000CD91CDBFDD91DEBFFF91EF91DF91CF91B7
:10047000BF91AF919F918F917F916F915F914F91BC
:100480003F912F911F910F91FF90EF90DF90CF90B0
:10049000BF90AF909F908F907F906F905F904F90A4
:1004A0003F902F901F900F900FBE0F9008950F92C6
:1004B0000FB6F8940F921F9211242F923F924F92F1
:1004C0005F926F927F928F929F92AF92BF92CF92E4
:1004D000DF92EF92FF920F931F932F933F934F93CF
:1004E0005F936F937F938F939F93AF93BF93CF93BC
:1004F000DF93EF93FF93A0912104B09122040DB6F6
:100500000D920EB60D920E94220981110E94ED0AF1
:10051000A0912104B0912204CD91CDBFDD91DEBF29
:10052000FF91EF91DF91CF91BF91AF919F918F910B
:100530007F916F915F914F913F912F911F910F91FB
:10054000FF90EF90DF90CF90BF90AF909F908F90F3
:100550007F906F905F904F903F902F901F900F90E3
:100560000FBE0F9008950E9457021895CF93DF9306
:10057000FC01A8E9B0E0CD91DC911197CE17DF071F
:1005800010F4DE01F8CF12968D919C9113979D0186
:10059000280F391FE217F30749F422813381820FB4
:1005A000931F13969C938E931297FD0182819381E2
:1005B0009F01280F391FC217D30791F4209196008D
:1005C00030919700C217D30759F02A813B81820FDF
:1005D000931F93838283888199819183808302C052
:1005E000D183C083EA17FB0711F0ED93FC93DF91F1
:1005F000CF910895EF92FF920F931F93CF93DF93C4
:10060000EC010E940F098091960090919700892B30
:1006100051F58CE990E090939900809398001092A6
:100620009B0010929A0028EB33E0309397002093C0
:1006300096001092BB031092BA031092B903109265
:10064000B8038CE193E090939F0080939E003093D9
:100650009D0020939C009093930080939200909330
:10066000950080939400CE0101978A3F9F4F20F41C
:100670009E012B5F3F4F02C020E030E012161306B0
:100680000CF05CC0E0909400F0909500E216F30648
:1006900008F454C0C0919800D0919900E8E9F0E0C6
:1006A0004A815B814217530740F0809196009091F8
:1006B0009700C817D90741F441C0888199810097F4
:1006C000A1F3FE01EC01ECCF008111810C5F1F4F03
:1006D0008881998191838083421B530B4930510556
:1006E00050F0CE01820F931FFC01538342833B8362
:1006F0002A830E94B6022A813B81C701821B930B89
:1007000090939500809394004091920050919300B3
:100710008417950720F4909393008093920030689B
:100720003B832A83198218828091900090919100D6
:100730000196909391008093900002C000E010E039
:100740000E94210AC801DF91CF911F910F91FF9064
:10075000EF900895CF93DF93009759F1EC01249720
:100760008A819B8197FF25C028813981232B09F538
:100770009F779B838A830E940F0920919400309178
:1007800095008A819B81820F931F9093950080939F
:100790009400CE010E94B60280918E0090918F004D
:1007A000019690938F0080938E00DF91CF910C94EF
:1007B000210ADF91CF9108950FB6F8940F92FC01B2
:1007C000928D0F900FBE81E0911180E008950F93FC
:1007D0001F93CF93DF93EC01042F1A8D4C8D44238C
:1007E000B1F150E0011115C08A819B810E94121461
:1007F0002C8D8A819B81820F911D9B838A832C8102
:100800003D818217930718F1888199819B838A83A0
:100810001EC08E819F810E9412148C8D90E0919554
:10082000819591092E813F81280F391F3F832E83A7
:10083000488159812417350730F42C813D81820F7E
:10084000931F9F838E83023011F4111111501F5F8B
:100850001A8F80E0DF91CF911F910F910895FC01D5
:10086000CB01448D4423A1F050E026813781240F31
:10087000351F37832683648175812617370720F05B
:100880002081318137832683668177810C9412140D
:100890000895EF92FF921F93CF93DF93EC010FB671
:1008A000F8940F921E8D7C0181E1E80EF11C111667
:1008B0005CF48989882341F0C7010E94890B81116A
:1008C0000E94720C1150F3CF8FEF8E8F0F900FBEDE
:1008D0000FB6F8940F921D8D7E0188E0E80EF11C92
:1008E00011165CF48885882341F0C7010E94890BAA
:1008F00081110E94720C1150F3CF8FEF8D8F0F90EA
:100900000FBEDF91CF911F91FF90EF900895CF938D
:10091000DF93EC01892B09F43EC09B8D992309F4E8
:100920003AC07C8D0FB6F8940F92488159819A0194
:10093000979F200D311D11243D832C831A8E5B83DC
:100940004A83892F90E00197789F9001799F300D1D
:100950001124CA01820F931F9F838E838FEF8D8F87
:100960008E8F61110CC08885882389F0CE0108968E
:100970000E94890B882359F00E94FE0108C0CE0115
:1009800008960E94EF00CE0141960E94EF000F9062
:100990000FBE81E001C080E0DF91CF9108950F93F9
:1009A0001F93CF93DF93811103C0C0E0D0E019C043
:1009B000162F082F869FC00111244F960E94FA021D
:1009C000EC01009791F3111103C09983888303C050
:1009D0004F96998388830B8F1C8F61E0CE010E9414
:1009E0008704CE01DF91CF911F910F910895AF92AF
:1009F000BF92CF92DF92FF920F931F93CF93DF931B
:100A000000D000D01F92CDB7DEB78C016B015D83A3
:100A10004C83F22E80E0580198E0A90EB11C0FB66D
:100A2000F8940F92F801228D938D291718F0F2E0B7
:100A3000FF1214C04F2DB601C8010E94E703F80150
:100A40009189992321F0C80141960E94890B811157
:100A50000E94FE010F900FBE81E050C02C813D81AD
:100A6000232B19F40F900FBE48C0811104C0CE0192
:100A700001960E94350C0F900FBE0E940F090FB611
:100A8000F8940F92F801858D8F3F09F4158EF801C7
:100A9000868D8F3F09F4168E0F900FBEBE016C5FDE
:100AA0007F4FCE0101960E94400C811121C00FB6EC
:100AB000F8940F92F801928D0F900FBE838D9813CA
:100AC00011C06C817D81C5010E94300BC8010E945C
:100AD00049040E94210A882311F081E0A0CF0E94DE
:100AE000FE01FBCFC8010E9449040E94210AF5CFF4
:100AF000C8010E9449040E94210A80E00F900F90D3
:100B00000F900F900F90DF91CF911F910F91FF9059
:100B1000DF90CF90BF90AF900895EF92FF921F9318
:100B2000CF93DF93EC019A8D8B8D981710F02230C4
:100B300009F57A011E8D8A8D422FCE010E94E703AE
:100B40001F3F81F48989882399F0CE0141960E9444
:100B5000890B882369F0E114F10451F081E0F70179
:100B6000808309C00E941F09181710F41F5F1E8F91
:100B700081E001C080E0DF91CF911F91FF90EF9065
:100B80000895AF92BF92CF92DF92FF920F931F937F
:100B9000CF93DF9300D000D01F92CDB7DEB78C018A
:100BA0006B015D834C8380E0580191E1A90EB11C7B
:100BB0000FB6F8940F92F801F28CFF20A9F0B6015D
:100BC000C8010E942F04FA94F801F28E80858823D0
:100BD00039F0C80108960E94890B81110E94FE011C
:100BE0000F900FBE81E050C02C813D81232B19F462
:100BF0000F900FBE48C0811104C0CE0101960E9423
:100C0000350C0F900FBE0E940F090FB6F8940F928B
:100C1000F801858D8F3F09F4158EF801868D8F3F81
:100C200009F4168E0F900FBEBE016C5F7F4FCE0190
:100C300001960E94400C81111CC0C8010E94DC0377
:100C4000882389F06C817D81C5010E94300BC80129
:100C50000E9449040E94210A882311F081E0A8CF54
:100C60000E94FE01FBCFC8010E9449040E94210A94
:100C7000F5CFC8010E9449040E94210AC8010E94C0
:100C8000DC03882359F380E00F900F900F900F90B2
:100C90000F90DF91CF911F910F91FF90DF90CF9038
:100CA000BF90AF900895EF92FF920F931F93CF9351
:100CB000DF9300D000D01F92CDB7DEB78C017D83CB
:100CC0006C8390E0780181E1E80EF11C0FB6F89496
:100CD0000F92F801828D882381F08150828F808568
:100CE000882339F0C80108960E94890B81110E945F
:100CF000FE010F900FBE81E050C02C813D81232B5F
:100D000019F40F900FBE48C0911104C0CE01019696
:100D10000E94350C0F900FBE0E940F090FB6F89479
:100D20000F92F801858D8F3F09F4158EF801868D9D
:100D30008F3F09F4168E0F900FBEBE016C5F7F4F80
:100D4000CE0101960E94400C81111CC0C8010E9476
:100D5000DC03882389F06C817D81C7010E94300B00
:100D6000C8010E9449040E94210A882311F091E0E1
:100D7000ADCF0E94FE01FBCFC8010E9449040E9432
:100D8000210AF5CFC8010E9449040E94210AC80126
:100D90000E94DC03882359F380E00F900F900F909E
:100DA0000F900F90DF91CF911F910F91FF90EF90D7
:100DB0000895CF93DF93EC010FB6F8940F928D8DC9
:100DC0008F3F09F41D8E8E8D8F3F09F41E8E0F907C
:100DD0000FBE8A8D811104C0CE0141960E94410B45
:100DE000CE01DF91CF910C944904E091E903F09199
:100DF000EA038081811103C08FEF9FEF09C0E0916A
:100E0000E903F091EA030580F681E02D808191816C
:100E10009093C0038093BF030895FF920F931F9395
:100E2000CF93DF93EC01F62E0091C8031091C90314
:100E3000809121049091220402960E943901CF3FB3
:100E40008FEFD807C1F5FF20B1F1E091CC03F0910D
:100E5000CD03A0912104B09122041596FC93EE934A
:100E60001497A0912104B091220484819581179652
:100E70009C938E9316978091210490912204A481D3
:100E8000B581029613969C938E93129780912104BC
:100E900090912204029695838483E0912104F0913D
:100EA00022048BEC93E0938782878091CB038F5F42
:100EB0008093CB032FC0C00FD11FE0912104F0918C
:100EC0002204D383C2836091210470912204C0174D
:100ED000D10768F48091E7039091E8036E5F7F4F3C
:100EE000DF91CF911F910F91FF900C9401018091A0
:100EF000E9039091EA036E5F7F4F0E9401018091A8
:100F0000BF039091C003C817D90720F4D093C00342
:100F1000C093BF03DF91CF911F910F91FF90089570
:100F20008091D403882309F10FB6F8940F92E091D1
:100F3000DA03F091DB03C681D781CE0102960E94CD
:100F400039018091CA0381508093CA038091D403F0
:100F500081508093D4030F900FBE8F89988D0E948B
:100F6000AA03CE010E94AA03DBCF8091FD03823049
:100F7000B8F20E94FE01D4CF5F926F927F928F925F
:100F80009F92AF92BF92CF92DF92EF92FF920F9318
:100F90001F93CF93DF933C016B015A014901502EFF
:100FA000CA010E94FA028C01892B09F4FAC088E276
:100FB00090E00E94FA02EC01892BF1F088E2DE0158
:100FC0001D928A95E9F7188F0F8BA50165EA70E0ED
:100FD000C8010E941B14B1E0AB1AB1088F89988D2B
:100FE000A80EB91EC114D104C1F0BE01675E7F4FC7
:100FF000F601C6010A9607C0C8010E94AA03D1C023
:10100000E817F90749F09F014191DB014D93BD01BC
:10101000D9012C912111F4CF1AA2052D043008F02A
:1010200003E00E8B6E01B2E0CB0ED11CC6010E9414
:10103000FD00CE010C960E94FD00D987C88784E090
:1010400090E0801B91099D878C87DB8BCA8BA40164
:10105000B301C5010E945D0199838883E114F10405
:1010600019F0F701D183C0830FB6F8940F928091E5
:10107000CA038F5F8093CA03809121049091220458
:10108000892BD1F5D0932204C09321048091CA0307
:10109000813009F041C08DEF93E00E94EF0086E0BF
:1010A00094E00E94EF008FE094E00E94EF0088E15E
:1010B00094E00E94EF0084EF93E00E94EF008BEE3B
:1010C00093E00E94EF008EED93E00E94EF0085ED2B
:1010D00093E00E94EF008BEC93E00E94EF0084EF1E
:1010E00093E09093EA038093E9038BEE93E090936F
:1010F000E8038093E70310C08091C60381110CC000
:10110000E0912104F091220496898E89891720F0BC
:10111000D0932204C09321048091C1038F5F8093F8
:10112000C103AE898091C7038A1710F4A093C70347
:1011300029E02A9FD0011124A350BC4F11960D9095
:10114000BC91A02DBD83AC8314968D919C91159775
:101150009F838E8314968D919C911597FC01D38269
:10116000C2821596DC92CE9214979E89299FF00137
:101170001124E350FC4FFB87EA8780818F5F8083D7
:101180000F900FBE8091C603882349F0E09121049F
:10119000F09122048689891710F40E94FE0181E0F3
:1011A00001C08FEFDF91CF911F910F91FF90EF90D2
:1011B000DF90CF90BF90AF909F908F907F906F9077
:1011C0005F900895EF92FF920F938DEBE82E83E0EE
:1011D000F82E00E020E030E045E550E063E670E006
:1011E00080E997E00E94BC07813099F40E94220EAA
:1011F000813079F4F8942FEF3FEF3093C0032093C0
:10120000BF038093C6031092C9031092C8030E94C3
:10121000C901809160000F91FF90EF900895809137
:10122000BC038F5F8093BC0308950FB6F8940F92B0
:101230008091C8039091C9030F900FBE08958091CB
:10124000CA030895CF92DF92EF92FF920F931F93FC
:10125000CF93DF938091BC038111E0C0C091C8039C
:10126000D091C9036E018FEFC81AD80AD092C90372
:10127000C092C803C114D104B9F48091E9039091DC
:10128000EA032091E7033091E8033093EA032093C7
:10129000E9039093E8038093E7038091C2038F5F93
:1012A0008093C2030E94F5068091BF039091C00312
:1012B000C816D90608F49CC080E069E0E091E90313
:1012C000F091EA039081911103C02FEF3FEF0FC01F
:1012D000E091E903F091EA030580F681E02D0680B4
:1012E000F781E02D22813381C216D30628F4309392
:1012F000C0032093BF037DC0C285D385248135817F
:1013000046815781D90115965C934E931497468177
:101310005781DA0113963C932E9312979F012E5F0B
:101320003F4F09811A810217130711F45A83498329
:1013300013861286988191509883A489B589109755
:10134000F9F04685578500891189EA011D830C83D0
:1013500000891189E8015B834A831196ED90FC9026
:101360001297AF01445F5F4FE416F50621F4129621
:101370001C930E931197158A148A9C9191509C93FB
:10138000A6899091C7039A1710F4A093C7036A9F88
:10139000D0011124A350BC4F11960D90BC91A02DEB
:1013A000B583A48314964D915C911597578346831A
:1013B00014964D915C911597EA013B832A8315960B
:1013C0003C932E9314972689629FD0011124A35039
:1013D000BC4FB387A2879C919F5F9C93E0912104AF
:1013E000F09122049689921708F068CF81E066CFC9
:1013F00080E0E0912104F0912204E689D9E0ED9F9C
:10140000F0011124E350FC4F9081923008F081E00C
:101410009091C303992361F081E00AC08091C403D5
:101420009091C50301969093C5038093C40380E017
:10143000DF91CF911F910F91FF90EF90DF90CF90B0
:101440000895EF92FF920F931F93CF93DF930FB600
:10145000F8940F928091BC0381508093BC038091DB
:10146000BC03882311F080E0AFC08091CA038823B9
:10147000D1F3E090E303F090E403E0E0F0E039E042
:1014800041E08091DE03882309F480C0D7011696DD
:10149000ED91FC911797A489B58966857785808938
:1014A0009189EB019D838C8380899189EC017B83F9
:1014B0006A83BF01645F7F4F11960D911C91129753
:1014C0000617170721F412969C938E931197158A8D
:1014D000148A8C9181508C93A285B38584819581E7
:1014E00066817781EC017D836C8366817781EB0176
:1014F0009B838A83CF01029611960D911C911297BE
:101500000817190721F412967C936E93119713868E
:1015100012862C9121502C93A6892091C7032A175B
:1015200010F4A093C7033A9FD0011124A350BC4FDD
:1015300011960D90BC91A02DB583A48314966D9146
:101540007C9115977783668314966D917C9115979E
:10155000EB019B838A8315969C938E9314979689AF
:10156000399FD0011124A350BC4FB387A2878C911F
:101570008F5F8C93A0912104B091220456968C9198
:10158000981708F47ECF4093C3037BCFEF2B11F065
:101590000E94F506C091C403D091C503209761F065
:1015A00011E00E94220981111093C3032197C9F70A
:1015B0001092C5031092C4038091C303882309F4D9
:1015C00052CF0E94FE0181E00F900FBEDF91CF91BC
:1015D0001F910F91FF90EF9008958091BC03882395
:1015E00021F081E08093C30308951092C30380919A
:1015F000C70369E0482F50E0649F9001659F300D5C
:101600001124F901E350FC4F9081911102C08150E7
:10161000F1CFA181B28112960D90BC91A02DB28321
:10162000A18320503C4FA217B30731F412962D919D
:101630003C9113973283218399E0949FF001959F09
:10164000F00D1124E350FC4F0180F281E02D268142
:10165000378130932204209321048093C703089597
:10166000CF93DF93EB016091210470912204645FBA
:101670007F4F0E94010161E0CE01DF91CF910C9478
:101680000D070F931F93CF93DF93FC018B01A18173
:10169000B2818091210490912204EC01BF87AE8732
:1016A000809121049091220414962D913C911597DC
:1016B000EC01398B288B209121043091220414965F
:1016C0008D919C911597245F3F4FEC013B832A83BA
:1016D0002091210430912204245F3F4F15963C93C2
:1016E0002E931497A0912104B09122045596FC9357
:1016F000EE93549790819F5F9083442311F00FEFF6
:101700001FEF642FC801DF91CF911F910F910C94AF
:101710000D07CF93DF93DC011596ED91FC911697A1
:101720000680F781E02DA489B58986859785208973
:101730003189EC013D832C83C089D1899B838A83C5
:10174000CF010C9611962D913C91129728173907CD
:1017500021F41296DC93CE931197158A148A2C915A
:1017600021502C932091BC0321114FC0A285B38539
:101770008481958126813781EC013D832C83C6814C
:10178000D7819B838A839F012E5F3F4F11968D9156
:101790009C9112978217930721F41296DC93CE93B3
:1017A0001197138612868C9181508C93A689809113
:1017B000C7038A1710F4A093C70389E08A9FD0015A
:1017C0001124A350BC4F11960D90BC91A02DB58350
:1017D000A48314964D915C91159757834683149674
:1017E000CD91DC9115973B832A8315963C932E93DC
:1017F0001497A6898A9FD0011124A350BC4FB387A8
:10180000A2878C918F5F8C931FC0A091DF03B09152
:10181000E003B787A68714962D913C911597318BDD
:10182000208B1496CD91DC9115979B838A83159616
:101830009C938E9314978EED93E0958B848B80917F
:10184000DE038F5F8093DE03A0912104B091220418
:10185000968956968C91891720F481E08093C30372
:1018600001C080E0DF91CF9108952091C203FC0177
:1018700020832091C8033091C903328321830895C6
:10188000CF93DF930FB6F8940F924091C803509115
:10189000C903DB012D913C912F3FBFEF3B07E1F0E6
:1018A000EC01E981FA81A091C203B881BA1741F035
:1018B0004E175F0728F0FB011182108281E00DC0F6
:1018C0004E1B5F0B42175307B0F7FB01241B350B70
:1018D000318320830E94350C80E00F900FBEDF9192
:1018E000CF91089581E08093C30308958091C6034A
:1018F000882331F08091BC03882321F080E0089593
:1019000081E0089582E008950FB6F8940F928091D7
:10191000270490912804892BE9F486E394E00E943F
:10192000EF008DE294E00E94EF0086E394E0909354
:101930002C0480932B048DE294E090932A048093EE
:10194000290440E065E084E00E94CF0490932804DD
:10195000809327040F900FBE0895FC017383628368
:10196000918780874617570778F0421B530B848571
:10197000958548175907C8F4BF016E5F7F4F809166
:10198000290490912A040DC04217530718F46217D6
:10199000730758F4BF016E5F7F4F80912B049091C5
:1019A0002C040E94010180E0089581E00895EF92E7
:1019B000FF920F931F93CF93DF93EC018B017A017A
:1019C0006C857D85600F711F9801A701CE010E9473
:1019D000AD0C882349F08C859D85080F191FE88977
:1019E000F989CE010995ECCFDF91CF911F910F912D
:1019F000FF90EF900895EF92FF920F931F93CF9374
:101A0000DF938C017B01E0912B04F0912C04058085
:101A1000F681E02DC681D781CE0102960E94390160
:101A20008A8982FF06C0A701B801CE010E94D70CA7
:101A300002C08E7F8A8BE889F989CE01DF91CF9130
:101A40001F910F91FF90EF900994E0912B04F0917A
:101A50002C048081882351F00580F681E02D6FEF02
:101A60007FEF808191810E94FB0CEFCF8091290450
:101A700090912A0490932C0480932B04F0932A04D1
:101A8000E09329040895CF93DF9300D000D01F92F4
:101A9000CDB7DEB7E0912B04F0912C04D080DD208F
:101AA00031F00580F681E02D0081118102C000E057
:101AB00010E00E940F090E9415097C018091230407
:101AC00090912404E816F90620F40E94250D81E087
:101AD00001C080E0F0922404E0922304811124C02C
:101AE000DD2051F0E016F10670F00E94210AB701E6
:101AF000C8010E94FB0C1EC0E0912904F0912A0449
:101B0000808141E0811140E0B8016E197F09809128
:101B10002704909128040E94D9060E94210A81116D
:101B200009C00E94FE0106C00E94210A03C08981EB
:101B300087FF0EC040E050E0BE016F5F7F4F809195
:101B40002704909128040E94C1058111F0CFA2CFF3
:101B50000C811D81D8011A968D919C911B97892B20
:101B600021F0C80102960E9439010E9415097C01EA
:101B70008091230490912404E816F90610F40E9441
:101B8000250DF0922404E0922304E9818E2FEE0FBC
:101B9000990BAA0BBB0BFC013197E930F10550F60C
:101BA000E65DFF4FD80152968C910C94EA13816048
:101BB000F801828B2A813B8164857585620F731FD2
:101BC000A701C8010E94AD0C882309F4B3CFD80146
:101BD00052968C91529782FF0DC06A817B811C9630
:101BE0008D919C911D97680F791FA701C8010E94D4
:101BF000D70C03C08E7FF801828BD8015096ED91EF
:101C0000FC915197C801099595CF8160D8015296F2
:101C10008C9352976A817B811D967C936E931C975F
:101C20006E0D7F1D9701A701C8010E94AD0C82CFE8
:101C300081FD04C0C8010E94AA037CCF8E7FF801F9
:101C4000828B78CFEF92FF920F930E94840C809149
:101C5000270490912804892B81F085E2E82E84E006
:101C6000F82E04E020E030E046E950E068E670E05D
:101C700083E49DE00E94BC0701C080E00F91FF90CB
:101C8000EF9008958F929F92AF92BF92CF92DF9282
:101C9000FF920F931F93CF93DF934C015B01F42EC0
:101CA000690183E190E00E94FA02EC01892BA1F026
:101CB0001A8A0E94840C99828882BD86AC86DF864F
:101CC000CE86198B088BCE0102960E94FD00FF2064
:101CD00019F08A8984608A8BCE01DF91CF911F91A0
:101CE0000F91FF90DF90CF90BF90AF909F908F901B
:101CF00008950F931F93CF93DF9300D000D01F92CE
:101D0000CDB7DEB7A0912704B0912804109729F130
:101D1000F90169835B834A839D838C836630A4F4D5
:101D20000E94760CE0912704F091280420E0823094
:101D300011F4A80102C040E050E0BE016F5F7F4F88
:101D4000CF010E94F7040AC020E0AF01BE016F5F1F
:101D50007F4FCD010E948D0501C080E00F900F9054
:101D60000F900F900F90DF91CF911F910F910895D9
:101D700061E08CE00E94520061E08DE00E94520020
:101D800061E08EE00E94520061E08FE00C9452000E
:101D9000DF92EF92FF920F931F93CF93DF9390E721
:101DA000E92E90E0F92ECCE0D4E560E08C2F0E9483
:101DB000520000E010E08AE1D82ED00E8D2D0E9456
:101DC000D300811109C0F701E00FF11FD0818D2DE3
:101DD0000E94D3008823D9F30F5F1F4F04301105F1
:101DE00051F761E08C2F0E945200CF5F84E0E80E33
:101DF000F11CC031D1F68D2FDF91CF911F910F9142
:101E0000FF90EF90DF900895CF93C82F61E083E1BA
:101E10000E9452006C2F661F6627661F87E10E9492
:101E20005200C6FB662760F986E10E945200C5FB9E
:101E3000662760F985E10E945200C4FB662760F9BD
:101E400084E10E94520061E082E10E9452008FEC26
:101E500097E00197F1F700C0000060E082E10E9486
:101E600052008FEC97E00197F1F700C00000C3FB30
:101E7000662760F987E10E945200C2FB662760F97D
:101E800086E10E945200C1FB662760F985E10E944D
:101E900052006C2F617084E10E94520061E082E187
:101EA0000E9452008FEC97E00197F1F700C000000C
:101EB00060E082E10E9452008FEC97E00197F1F719
:101EC00000C00000CF910895CF93C82F60E083E158
:101ED0000E9452006C2F661F6627661F87E10E94D2
:101EE0005200C6FB662760F986E10E945200C5FBDE
:101EF000662760F985E10E945200C4FB662760F9FD
:101F000084E10E94520061E082E10E9452008FEC65
:101F100097E00197F1F700C0000060E082E10E94C5
:101F200052008FEC97E00197F1F700C00000C3FB6F
:101F3000662760F987E10E945200C2FB662760F9BC
:101F400086E10E945200C1FB662760F985E10E948C
:101F500052006C2F617084E10E94520061E082E1C6
:101F60000E9452008FEC97E00197F1F700C000004B
:101F700060E082E10E9452008FEC97E00197F1F758
:101F800000C00000CF9108952FE788E391E0215031
:101F900080409040E1F700C0000082E00E94640FA2
:101FA00088E20E94640F8CE00E94640F81E00E942E
:101FB000640F8FEC97E00197F1F700C0000086E016
:101FC0000C94640FCF93DF93D82FCFEFC60F8130DF
:101FD00029F4C03190F48C2F806807C0823069F4F6
:101FE000C03158F48C2F8068805C0E94640FC093CD
:101FF0006200D093610080E001C083E0DF91CF9167
:10200000089580916200813168F080916100813093
:1020100019F461E082E004C0823021F461E081E0E3
:102020000C94E20F0895CF93C82F0E9401108C2FBB
:102030000E94040F809162008F5F80936200CF91B5
:1020400008954F925F926F927F92AF92BF92CF921C
:10205000DF92EF92FF921F93CF93DF93CDB7DEB75E
:1020600060970FB6F894DEBF0FBECDBF6B017C0149
:102070006115710581059105B1F480E360960FB695
:10208000F894DEBF0FBECDBFDF91CF911F91FF90BF
:10209000EF90DF90CF90BF90AF907F906F905F9068
:1020A0004F900C94131097FF0BC0F094E094D094D1
:1020B000C094C11CD11CE11CF11C8DE20E941310C4
:1020C00010E09AE0492E512C612C712CAA24A39483
:1020D000B12CAC0EBD1EA10EB11CC701B601A301EF
:1020E00092010E94CB13605DF501608369017A0162
:1020F00081E0810FC114D104E104F10411F0182F23
:10210000E5CFF12EF7FC0DC0E1E0F0E0EC0FFD1F94
:10211000EF0DF11DF7FCFA9580810E941310FA94DF
:10212000F1CF60960FB6F894DEBF0FBECDBFDF9142
:10213000CF911F91FF90EF90DF90CF90BF90AF9025
:102140007F906F905F904F9008950F931F93CF9360
:102150008C01C0E0F801EC0FF11D8081882321F093
:102160000E941310CF5FF6CFCF911F910F9108956A
:10217000809141048F5F8C3319F08093410407C034
:1021800010924104809140048F5F809340048091BD
:1021900040048C3339F41092400480913F048F5FE7
:1021A00080933F0480913F04883111F410923F04E2
:1021B00020E040E050E06FE374E0809146049091AD
:1021C00047040C94F7040F931F9320E040E050E085
:1021D00060E070E080914404909145040E94F7040F
:1021E00020E040E050E060E070E080914204909197
:1021F00043040E94F70400E010E020E030E040E0FB
:1022000050E063E080914E0490914F040E94790E5B
:102210001F910F910895CF93DF9300D000D01F92AC
:10222000CDB7DEB7EE24E39484E5F82E10E00E94EB
:10223000C80E8435E1F3111130C090ED980F9A303B
:1022400008F0AFC08983FA82FB821C8200E010E0B4
:1022500020E030E040E050E063E080914E04909157
:102260004F040E94790E0E94150920E030E0AC0175
:1022700061E080914E0490914F040E94790E20E01D
:1022800040E050E0BE016F5F7F4F80914A04909123
:102290004B040E94F70411E084C0113099F5982F87
:1022A0009D7F9D3229F096ED980F923008F079C00D
:1022B0008A83FB821C8200E010E020E030E040E0F6
:1022C00050E063E080914E0490914F040E94790E9B
:1022D0000E94150920E030E0AC0161E080914E04DD
:1022E00090914F040E94790E20E040E050E0BE0142
:1022F0006F5F7F4F80914A0490914B040E94F704D6
:1023000012E04FC0123071F590ED980F9A3008F03E
:1023100048C08B831C8200E010E020E030E040E009
:1023200050E063E080914E0490914F040E94790E3A
:102330000E94150920E030E0AC0161E080914E047C
:1023400090914F040E94790E20E040E050E0BE01E1
:102350006F5F7F4F80914A0490914B040E94F70475
:1023600013E01FC01330E9F48D33D9F4EC8200E0A0
:1023700010E020E030E040E050E063E080914E0467
:1023800090914F040E94790E20E040E050E0BE01A1
:102390006F5F7F4F80914A0490914B040E94F70435
:1023A00010E08C81813081F420E040E050E0BE01FB
:1023B0006F5F7F4F80914C0490914D040E94F70411
:1023C000F982FA82FB821C8260E070E08091420414
:1023D000909143040E945306813009F028CFF9827E
:1023E000FA82FB821C8222CFCF93DF9300D000D0F1
:1023F000CDB7DEB719821A821B821C8240E050E002
:10240000BE016F5F7F4F80914C0490914D040E94FC
:10241000C105813099F78A818B3289F058F48A326C
:1024200031F5898190ED980F8B818053899F802DA4
:1024300011240DC08D3241F08F3259F018C09981AE
:102440008B81890F805603C089819B81891B8C8376
:102450000EC06B81611102C01C8209C0898190E0AD
:10246000C09770E0605371090E94B7136C8320E03D
:1024700040E050E0BE016F5F7F4F80914804909133
:1024800049040E94F704BACFCF93DF93CDB7DEB7EC
:102490002C970FB6F894DEBF0FBECDBF8E010F5F35
:1024A0001F4F85E0F80111928A95E9F71E821F827D
:1024B000188619861A861B861C8660E070E080915B
:1024C0004404909145040E945306813039F461E040
:1024D0000E94E20F80E890E00E94A51040E050E0EA
:1024E000B80180914A0490914B040E94C10581304B
:1024F00001F561E00E94E20F8981843509F480E2F0
:102500000E9413108A81843509F480E20E9413101E
:102510008B81843509F480E20E9413108C81813014
:1025200021F48DE30E94131004C087E890E00E941C
:10253000A51040E050E0BE016A5F7F4F80914804E3
:10254000909149040E94C1058130B9F461E00E9474
:10255000E20F8E810E9413108F810E9413108885D4
:102560000E9413108DE30E9413106985062E000C43
:10257000770B880B990B0E94211040E050E0BE01C0
:10258000665F7F4F80914804909149040E94C10585
:10259000813009F092CF61E082E00E94E20F6A850B
:1025A00070E080E090E00E9421108AE30E94131006
:1025B0006B8570E080E090E00E9421108AE30E9429
:1025C00013106C8570E080E090E00E94211088E894
:1025D00090E00E94A51071CFEF92FF920F931F938E
:1025E0000E94C40F0E94B80E43E060E081E00E94A8
:1025F000CF04909343048093420443E060E081E081
:102600000E94CF04909345048093440440E063E02B
:1026100081E00E94CF0490934D0480934C0440E0ED
:1026200065E081E00E94CF0490934B0480934A04BC
:1026300040E064E081E00E94CF04909349048093DD
:10264000480440E063E081E00E94CF049093470497
:102650008093460408EB10E120E030E041E060E1C7
:1026600070E080E090E00E94420E909351048093CD
:10267000500403EE10E120E030E041E06DE370E053
:1026800080E090E00E94420E90934F0480934E04AD
:10269000E12CF12C03E020E030E04AEF50E060E074
:1026A00070E08BE091E10E94BC07082E000C990BB2
:1026B000909357048093560401E020E030E04AEF05
:1026C00050E060E070E084E492E10E94BC07082ED4
:1026D000000C990B909353048093520402E020E085
:1026E00030E04AEF50E060E070E084EF91E10E945A
:1026F000BC07082E000C990B90935504809354044A
:102700000E94150900E010E020E030E0AC0161E03B
:1027100080915004909151040E94790E0E941509F5
:1027200020E030E0AC0161E080914E0490914F04D4
:102730000E94790E0E94E20880E090E01F910F91C4
:10274000FF90EF900895AA1BBB1B51E107C0AA1F81
:10275000BB1FA617B70710F0A61BB70B881F991F42
:102760005A95A9F780959095BC01CD01089597FBE6
:10277000072E16F4009407D077FD09D00E94A3130A
:1027800007FC05D03EF4909581959F4F0895709574
:1027900061957F4F0895052E97FB1EF400940E94CB
:1027A000E21357FD07D00E94F01307FC03D04EF44C
:1027B0000C94E21350954095309521953F4F4F4F23
:1027C0005F4F089590958095709561957F4F8F4FDD
:1027D0009F4F0895EE0FFF1F0590F491E02D09948F
:1027E000A1E21A2EAA1BBB1BFD010DC0AA1FBB1F15
:1027F000EE1FFF1FA217B307E407F50720F0A21B87
:10280000B30BE40BF50B661F771F881F991F1A94F3
:1028100069F760957095809590959B01AC01BD011D
:10282000CF010895FB01DC0102C001900D924150DF
:102830005040D8F70895DC0101C06D9341505040DD
:08284000E0F70895F894FFCFC2
:1028480003010149444C4500546D722053766300DE
:102858003738392F3435362A3132332D63303D2B12
:0E2868002020202020202020202020200000E2
:00000001FF
